{
  "address": "0xb1b7e1aE6Fa65eBfd373f8305C0F4132e6cE252c",
  "abi": [
    {
      "inputs": [],
      "stateMutability": "nonpayable",
      "type": "constructor"
    },
    {
      "anonymous": false,
      "inputs": [
        {
          "indexed": false,
          "internalType": "address",
          "name": "contractAddress",
          "type": "address"
        },
        {
          "indexed": false,
          "internalType": "uint256",
          "name": "tokenId",
          "type": "uint256"
        },
        {
          "indexed": false,
          "internalType": "bool",
          "name": "allowedToBeSold",
          "type": "bool"
        },
        {
          "indexed": false,
          "internalType": "address",
          "name": "performerAddress",
          "type": "address"
        }
      ],
      "name": "CollectionTokensWhitelistingSet",
      "type": "event"
    },
    {
      "anonymous": false,
      "inputs": [
        {
          "indexed": false,
          "internalType": "address",
          "name": "receiver",
          "type": "address"
        },
        {
          "indexed": false,
          "internalType": "uint256",
          "name": "amount",
          "type": "uint256"
        }
      ],
      "name": "FundsClaimed",
      "type": "event"
    },
    {
      "anonymous": false,
      "inputs": [
        {
          "indexed": true,
          "internalType": "bytes32",
          "name": "role",
          "type": "bytes32"
        },
        {
          "indexed": true,
          "internalType": "bytes32",
          "name": "previousAdminRole",
          "type": "bytes32"
        },
        {
          "indexed": true,
          "internalType": "bytes32",
          "name": "newAdminRole",
          "type": "bytes32"
        }
      ],
      "name": "RoleAdminChanged",
      "type": "event"
    },
    {
      "anonymous": false,
      "inputs": [
        {
          "indexed": true,
          "internalType": "bytes32",
          "name": "role",
          "type": "bytes32"
        },
        {
          "indexed": true,
          "internalType": "address",
          "name": "account",
          "type": "address"
        },
        {
          "indexed": true,
          "internalType": "address",
          "name": "sender",
          "type": "address"
        }
      ],
      "name": "RoleGranted",
      "type": "event"
    },
    {
      "anonymous": false,
      "inputs": [
        {
          "indexed": true,
          "internalType": "bytes32",
          "name": "role",
          "type": "bytes32"
        },
        {
          "indexed": true,
          "internalType": "address",
          "name": "account",
          "type": "address"
        },
        {
          "indexed": true,
          "internalType": "address",
          "name": "sender",
          "type": "address"
        }
      ],
      "name": "RoleRevoked",
      "type": "event"
    },
    {
      "anonymous": false,
      "inputs": [
        {
          "components": [
            {
              "internalType": "address",
              "name": "tokenAddr",
              "type": "address"
            },
            {
              "internalType": "uint256",
              "name": "tokenId",
              "type": "uint256"
            },
            {
              "internalType": "uint256",
              "name": "price",
              "type": "uint256"
            }
          ],
          "indexed": false,
          "internalType": "struct EventTrader.TokenPrice[]",
          "name": "tokensPrice",
          "type": "tuple[]"
        }
      ],
      "name": "TokenPricesSet",
      "type": "event"
    },
    {
      "anonymous": false,
      "inputs": [
        {
          "indexed": false,
          "internalType": "address",
          "name": "owner",
          "type": "address"
        },
        {
          "indexed": false,
          "internalType": "address",
          "name": "validateUser",
          "type": "address"
        },
        {
          "indexed": false,
          "internalType": "enum EventTrader.TokenType",
          "name": "tokenType",
          "type": "uint8"
        },
        {
          "indexed": false,
          "internalType": "address",
          "name": "nftContractAddress",
          "type": "address"
        },
        {
          "indexed": false,
          "internalType": "uint256",
          "name": "tokenId",
          "type": "uint256"
        },
        {
          "indexed": false,
          "internalType": "uint256",
          "name": "amount",
          "type": "uint256"
        },
        {
          "indexed": false,
          "internalType": "uint256",
          "name": "date",
          "type": "uint256"
        },
        {
          "indexed": false,
          "internalType": "bool",
          "name": "valid",
          "type": "bool"
        }
      ],
      "name": "TokenUsed",
      "type": "event"
    },
    {
      "inputs": [],
      "name": "DEFAULT_ADMIN_ROLE",
      "outputs": [
        {
          "internalType": "bytes32",
          "name": "",
          "type": "bytes32"
        }
      ],
      "stateMutability": "view",
      "type": "function"
    },
    {
      "inputs": [],
      "name": "MODERATOR_ROLE",
      "outputs": [
        {
          "internalType": "bytes32",
          "name": "",
          "type": "bytes32"
        }
      ],
      "stateMutability": "view",
      "type": "function"
    },
    {
      "inputs": [
        {
          "internalType": "address",
          "name": "nftContractAddress",
          "type": "address"
        },
        {
          "internalType": "enum EventTrader.TokenType",
          "name": "tokenType",
          "type": "uint8"
        },
        {
          "internalType": "uint256",
          "name": "tokenId",
          "type": "uint256"
        },
        {
          "internalType": "uint256",
          "name": "amount",
          "type": "uint256"
        }
      ],
      "name": "buyToken",
      "outputs": [],
      "stateMutability": "payable",
      "type": "function"
    },
    {
      "inputs": [],
      "name": "claimFunds",
      "outputs": [],
      "stateMutability": "nonpayable",
      "type": "function"
    },
    {
      "inputs": [
        {
          "internalType": "address",
          "name": "",
          "type": "address"
        },
        {
          "internalType": "uint256",
          "name": "",
          "type": "uint256"
        }
      ],
      "name": "collectionTokensAllowedForSale",
      "outputs": [
        {
          "internalType": "bool",
          "name": "",
          "type": "bool"
        }
      ],
      "stateMutability": "view",
      "type": "function"
    },
    {
      "inputs": [
        {
          "internalType": "bytes32",
          "name": "role",
          "type": "bytes32"
        }
      ],
      "name": "getRoleAdmin",
      "outputs": [
        {
          "internalType": "bytes32",
          "name": "",
          "type": "bytes32"
        }
      ],
      "stateMutability": "view",
      "type": "function"
    },
    {
      "inputs": [
        {
          "internalType": "address",
          "name": "nftContractAddress",
          "type": "address"
        },
        {
          "internalType": "enum EventTrader.TokenType",
          "name": "tokenType",
          "type": "uint8"
        },
        {
          "internalType": "uint256",
          "name": "tokenId",
          "type": "uint256"
        }
      ],
      "name": "getTokenPrice",
      "outputs": [
        {
          "internalType": "uint256",
          "name": "",
          "type": "uint256"
        }
      ],
      "stateMutability": "view",
      "type": "function"
    },
    {
      "inputs": [
        {
          "internalType": "uint256",
          "name": "tokenId",
          "type": "uint256"
        }
      ],
      "name": "getUsedToken",
      "outputs": [
        {
          "components": [
            {
              "internalType": "address",
              "name": "owner",
              "type": "address"
            },
            {
              "internalType": "address",
              "name": "validateUser",
              "type": "address"
            },
            {
              "internalType": "enum EventTrader.TokenType",
              "name": "tokenType",
              "type": "uint8"
            },
            {
              "internalType": "address",
              "name": "nftContractAddress",
              "type": "address"
            },
            {
              "internalType": "uint256",
              "name": "tokenId",
              "type": "uint256"
            },
            {
              "internalType": "uint256",
              "name": "amount",
              "type": "uint256"
            },
            {
              "internalType": "uint256",
              "name": "date",
              "type": "uint256"
            },
            {
              "internalType": "bool",
              "name": "valid",
              "type": "bool"
            }
          ],
          "internalType": "struct EventTrader.Token",
          "name": "",
          "type": "tuple"
        }
      ],
      "stateMutability": "view",
      "type": "function"
    },
    {
      "inputs": [
        {
          "internalType": "address",
          "name": "moderatorAddress",
          "type": "address"
        }
      ],
      "name": "grantModerator",
      "outputs": [],
      "stateMutability": "nonpayable",
      "type": "function"
    },
    {
      "inputs": [
        {
          "internalType": "bytes32",
          "name": "role",
          "type": "bytes32"
        },
        {
          "internalType": "address",
          "name": "account",
          "type": "address"
        }
      ],
      "name": "grantRole",
      "outputs": [],
      "stateMutability": "nonpayable",
      "type": "function"
    },
    {
      "inputs": [
        {
          "internalType": "bytes32",
          "name": "role",
          "type": "bytes32"
        },
        {
          "internalType": "address",
          "name": "account",
          "type": "address"
        }
      ],
      "name": "hasRole",
      "outputs": [
        {
          "internalType": "bool",
          "name": "",
          "type": "bool"
        }
      ],
      "stateMutability": "view",
      "type": "function"
    },
    {
      "inputs": [
        {
          "internalType": "bytes32",
          "name": "role",
          "type": "bytes32"
        },
        {
          "internalType": "address",
          "name": "account",
          "type": "address"
        }
      ],
      "name": "renounceRole",
      "outputs": [],
      "stateMutability": "nonpayable",
      "type": "function"
    },
    {
      "inputs": [
        {
          "internalType": "address",
          "name": "moderatorAddress",
          "type": "address"
        }
      ],
      "name": "revokeModerator",
      "outputs": [],
      "stateMutability": "nonpayable",
      "type": "function"
    },
    {
      "inputs": [
        {
          "internalType": "bytes32",
          "name": "role",
          "type": "bytes32"
        },
        {
          "internalType": "address",
          "name": "account",
          "type": "address"
        }
      ],
      "name": "revokeRole",
      "outputs": [],
      "stateMutability": "nonpayable",
      "type": "function"
    },
    {
      "inputs": [
        {
          "internalType": "address",
          "name": "nftContractAddress",
          "type": "address"
        },
        {
          "internalType": "uint256",
          "name": "tokenId",
          "type": "uint256"
        },
        {
          "internalType": "bool",
          "name": "allowedToBeSold",
          "type": "bool"
        }
      ],
      "name": "setCollectionTokensWhitelisting",
      "outputs": [],
      "stateMutability": "nonpayable",
      "type": "function"
    },
    {
      "inputs": [
        {
          "components": [
            {
              "internalType": "address",
              "name": "tokenAddr",
              "type": "address"
            },
            {
              "internalType": "uint256",
              "name": "tokenId",
              "type": "uint256"
            },
            {
              "internalType": "uint256",
              "name": "price",
              "type": "uint256"
            }
          ],
          "internalType": "struct EventTrader.TokenPrice[]",
          "name": "tokensPrice",
          "type": "tuple[]"
        }
      ],
      "name": "setTokenPrices",
      "outputs": [],
      "stateMutability": "nonpayable",
      "type": "function"
    },
    {
      "inputs": [
        {
          "internalType": "uint256",
          "name": "usedTokenId",
          "type": "uint256"
        },
        {
          "internalType": "bool",
          "name": "valid",
          "type": "bool"
        }
      ],
      "name": "setTokenValidation",
      "outputs": [],
      "stateMutability": "nonpayable",
      "type": "function"
    },
    {
      "inputs": [
        {
          "internalType": "bytes4",
          "name": "interfaceId",
          "type": "bytes4"
        }
      ],
      "name": "supportsInterface",
      "outputs": [
        {
          "internalType": "bool",
          "name": "",
          "type": "bool"
        }
      ],
      "stateMutability": "view",
      "type": "function"
    },
    {
      "inputs": [
        {
          "internalType": "address",
          "name": "nftContractAddress",
          "type": "address"
        },
        {
          "internalType": "address",
          "name": "targetAddr",
          "type": "address"
        }
      ],
      "name": "transferCollectionOwnership",
      "outputs": [],
      "stateMutability": "nonpayable",
      "type": "function"
    },
    {
      "inputs": [
        {
          "internalType": "address",
          "name": "validateUser",
          "type": "address"
        },
        {
          "internalType": "address",
          "name": "nftContractAddress",
          "type": "address"
        },
        {
          "internalType": "enum EventTrader.TokenType",
          "name": "tokenType",
          "type": "uint8"
        },
        {
          "internalType": "uint256",
          "name": "tokenId",
          "type": "uint256"
        },
        {
          "internalType": "uint256",
          "name": "amount",
          "type": "uint256"
        }
      ],
      "name": "useToken",
      "outputs": [],
      "stateMutability": "nonpayable",
      "type": "function"
    }
  ],
  "transactionHash": "0xe71af28cd86f7ccd733b95a544bfc49fd4858ac13c61f453b066eb07f0f019fb",
  "args": [],
  "solcInputHash": "ccae457ce4103d37a6a66e11c0631854",
  "bytecode": "0x60806040523480156200001157600080fd5b506200001f60003362000025565b620000d5565b62000031828262000035565b5050565b6000828152602081815260408083206001600160a01b038516845290915290205460ff1662000031576000828152602081815260408083206001600160a01b03851684529091529020805460ff19166001179055620000913390565b6001600160a01b0316816001600160a01b0316837f2f8788117e7eff1d82e926ec794901d17c78024a50270940304540a733656f0d60405160405180910390a45050565b612e9a80620000e56000396000f3fe60806040526004361061015f5760003560e01c80636981c7ae116100c0578063ac30777311610074578063bd3d9a2b11610059578063bd3d9a2b14610403578063d547741f14610423578063e41eb5f61461044357600080fd5b8063ac307773146103ce578063b235c93b146103e357600080fd5b8063797669c9116100a5578063797669c91461033457806391d1485414610368578063a217fddf146103b957600080fd5b80636981c7ae146103015780637386086d1461032157600080fd5b80632f2ff15d1161011757806336568abe116100fc57806336568abe146102865780634b93aed4146102a657806359ef47ad146102c657600080fd5b80632f2ff15d14610246578063364456361461026657600080fd5b8063248a9ca311610148578063248a9ca3146101bb5780632b0e576a146101f95780632cc068941461022657600080fd5b806301ffc9a7146101645780631a27e2e914610199575b600080fd5b34801561017057600080fd5b5061018461017f3660046129aa565b610463565b60405190151581526020015b60405180910390f35b3480156101a557600080fd5b506101b96101b4366004612758565b6104fc565b005b3480156101c757600080fd5b506101eb6101d636600461296c565b60009081526020819052604090206001015490565b604051908152602001610190565b34801561020557600080fd5b5061021961021436600461296c565b61058d565b6040516101909190612c09565b34801561023257600080fd5b506101b9610241366004612791565b6107a9565b34801561025257600080fd5b506101b9610261366004612985565b6113af565b34801561027257600080fd5b506101b961028136600461271e565b6113d9565b34801561029257600080fd5b506101b96102a1366004612985565b611406565b3480156102b257600080fd5b506101eb6102c13660046127ea565b6114b9565b3480156102d257600080fd5b506101846102e136600461286c565b600160209081526000928352604080842090915290825290205460ff1681565b34801561030d57600080fd5b506101b961031c36600461271e565b6116e7565b6101b961032f366004612828565b611711565b34801561034057600080fd5b506101eb7f71f3d55856e4058ed06ee057d79ada615f65cdf5f9ee88181b914225088f834f81565b34801561037457600080fd5b50610184610383366004612985565b60009182526020828152604080842073ffffffffffffffffffffffffffffffffffffffff93909316845291905290205460ff1690565b3480156103c557600080fd5b506101eb600081565b3480156103da57600080fd5b506101b9611bb0565b3480156103ef57600080fd5b506101b96103fe366004612898565b611c3f565b34801561040f57600080fd5b506101b961041e3660046128da565b611da2565b34801561042f57600080fd5b506101b961043e366004612985565b612071565b34801561044f57600080fd5b506101b961045e366004612a05565b612096565b60007fffffffff0000000000000000000000000000000000000000000000000000000082167f7965db0b0000000000000000000000000000000000000000000000000000000014806104f657507f01ffc9a7000000000000000000000000000000000000000000000000000000007fffffffff000000000000000000000000000000000000000000000000000000008316145b92915050565b600061050781612246565b6040517ff2fde38b00000000000000000000000000000000000000000000000000000000815273ffffffffffffffffffffffffffffffffffffffff838116600483015284169063f2fde38b90602401600060405180830381600087803b15801561057057600080fd5b505af1158015610584573d6000803e3d6000fd5b50505050505050565b604080516101008101825260008082526020808301829052828401829052606083018290526080830182905260a0830182905260c0830182905260e083018290523382527fad3228b676f7d3cd4284a5443f17f1962b36e491b30a40b2405849e597ba5fb59052919091205460ff168061063557503360009081527ff179aafcc4ff8137fca1ef3b9ec4d165f87016ba123e7973fba770bc55e240e3602052604090205460ff165b6106c6576040517f08c379a000000000000000000000000000000000000000000000000000000000815260206004820152603360248201527f4f6e6c7920636f6e74726163742061646d696e206f72206d6f64657261746f7260448201527f2063616e20676574207573656420746f6b656e0000000000000000000000000060648201526084015b60405180910390fd5b600082815260036020908152604091829020825161010081018452815473ffffffffffffffffffffffffffffffffffffffff90811682526001808401549182169483019490945290939192918401917401000000000000000000000000000000000000000090910460ff169081111561074157610741612da7565b600181111561075257610752612da7565b8152600282015473ffffffffffffffffffffffffffffffffffffffff16602082015260038201546040820152600482015460608201526005820154608082015260069091015460ff16151560a09091015292915050565b73ffffffffffffffffffffffffffffffffffffffff8516158015906107e6575061dead73ffffffffffffffffffffffffffffffffffffffff861614155b610872576040517f08c379a000000000000000000000000000000000000000000000000000000000815260206004820152602760248201527f56616c69646174696f6e20757365722063616e206e6f74206265206e756c6c2060448201527f616464726573730000000000000000000000000000000000000000000000000060648201526084016106bd565b600083600181111561088657610886612da7565b1415610d8c5773ffffffffffffffffffffffffffffffffffffffff8416600090815260016020908152604080832083805290915290205460ff1661094c576040517f08c379a000000000000000000000000000000000000000000000000000000000815260206004820152603060248201527f537065636966696564204e465420636f6e7472616374206973206e6f7420616c60448201527f6c6f77656420746f20626520757365640000000000000000000000000000000060648201526084016106bd565b806001146109dc576040517f08c379a000000000000000000000000000000000000000000000000000000000815260206004820152603160248201527f4f6e6c79206f6e6520746f6b656e20697320706f737369626c6520746f20757360448201527f6520706572207472616e73616374696f6e00000000000000000000000000000060648201526084016106bd565b6040517f6352211e00000000000000000000000000000000000000000000000000000000815260048101839052339073ffffffffffffffffffffffffffffffffffffffff861690636352211e9060240160206040518083038186803b158015610a4457600080fd5b505afa158015610a58573d6000803e3d6000fd5b505050506040513d601f19601f82011682018060405250810190610a7c919061273b565b73ffffffffffffffffffffffffffffffffffffffff1614610b1f576040517f08c379a000000000000000000000000000000000000000000000000000000000815260206004820152602f60248201527f55736572206973206e6f7420746865206f776e6572206f66207370656369666960448201527f65642045524337323120746f6b656e000000000000000000000000000000000060648201526084016106bd565b6040517f081812fc00000000000000000000000000000000000000000000000000000000815260048101839052309073ffffffffffffffffffffffffffffffffffffffff86169063081812fc9060240160206040518083038186803b158015610b8757600080fd5b505afa158015610b9b573d6000803e3d6000fd5b505050506040513d601f19601f82011682018060405250810190610bbf919061273b565b73ffffffffffffffffffffffffffffffffffffffff161480610c7f57506040517fe985e9c500000000000000000000000000000000000000000000000000000000815233600482015230602482015273ffffffffffffffffffffffffffffffffffffffff85169063e985e9c59060440160206040518083038186803b158015610c4757600080fd5b505afa158015610c5b573d6000803e3d6000fd5b505050506040513d601f19601f82011682018060405250810190610c7f919061294f565b610d0b576040517f08c379a000000000000000000000000000000000000000000000000000000000815260206004820152603260248201527f53706563696669656420746f6b656e20696420686173206e6f7420617070726f60448201527f76616c20746f204576656e74547261646572000000000000000000000000000060648201526084016106bd565b6040517f42966c680000000000000000000000000000000000000000000000000000000081526004810183905273ffffffffffffffffffffffffffffffffffffffff8516906342966c6890602401600060405180830381600087803b158015610d7357600080fd5b505af1158015610d87573d6000803e3d6000fd5b505050505b6001836001811115610da057610da0612da7565b141561117b5773ffffffffffffffffffffffffffffffffffffffff8416600090815260016020908152604080832085845290915290205460ff16610e66576040517f08c379a000000000000000000000000000000000000000000000000000000000815260206004820152603060248201527f537065636966696564204e465420636f6e7472616374206973206e6f7420616c60448201527f6c6f77656420746f20626520757365640000000000000000000000000000000060648201526084016106bd565b6040517efdd58e00000000000000000000000000000000000000000000000000000000815233600482015260248101839052819073ffffffffffffffffffffffffffffffffffffffff86169062fdd58e9060440160206040518083038186803b158015610ed257600080fd5b505afa158015610ee6573d6000803e3d6000fd5b505050506040513d601f19601f82011682018060405250810190610f0a91906129ec565b1015610fbe576040517f08c379a000000000000000000000000000000000000000000000000000000000815260206004820152604360248201527f5573657220646f6573206e6f7420686176652073706563696669656420616d6f60448201527f756e74206f6620746f6b656e7320617420746f6b656e496420746f206265207360648201527f6f6c640000000000000000000000000000000000000000000000000000000000608482015260a4016106bd565b6040517fe985e9c500000000000000000000000000000000000000000000000000000000815233600482015230602482015273ffffffffffffffffffffffffffffffffffffffff85169063e985e9c59060440160206040518083038186803b15801561102957600080fd5b505afa15801561103d573d6000803e3d6000fd5b505050506040513d601f19601f82011682018060405250810190611061919061294f565b6110ed576040517f08c379a000000000000000000000000000000000000000000000000000000000815260206004820152603160248201527f546f6b656e7320746f206265207573656420617265206e6f7420617070726f7660448201527f656420746f204576656e7454726164657200000000000000000000000000000060648201526084016106bd565b6040517ff5298aca000000000000000000000000000000000000000000000000000000008152336004820152602481018390526044810182905273ffffffffffffffffffffffffffffffffffffffff85169063f5298aca90606401600060405180830381600087803b15801561116257600080fd5b505af1158015611176573d6000803e3d6000fd5b505050505b600061118660045490565b604080516101008101825233815273ffffffffffffffffffffffffffffffffffffffff8916602082015291925081018560018111156111c7576111c7612da7565b815273ffffffffffffffffffffffffffffffffffffffff808816602080840191909152604080840188905260608401879052426080850152600160a0909401849052600086815260038352819020855181549085167fffffffffffffffffffffffff000000000000000000000000000000000000000091821617825592860151818601805491909516938116841785559186015190949093927fffffffffffffffffffffff00000000000000000000000000000000000000000090921690911790740100000000000000000000000000000000000000009084908111156112b0576112b0612da7565b021790555060608201516002820180547fffffffffffffffffffffffff00000000000000000000000000000000000000001673ffffffffffffffffffffffffffffffffffffffff9092169190911790556080820151600382015560a082015160048083019190915560c0830151600583015560e090920151600690910180547fffffffffffffffffffffffffffffffffffffffffffffffffffffffffffffff0016911515919091179055805460010190557f138853ff99906325eef3077b58ece04ce292c4901e297f08bd3eae391aa1198333878688878742600160405161139f989796959493929190612ae6565b60405180910390a1505050505050565b6000828152602081905260409020600101546113ca81612246565b6113d48383612250565b505050565b6114037f71f3d55856e4058ed06ee057d79ada615f65cdf5f9ee88181b914225088f834f82612071565b50565b73ffffffffffffffffffffffffffffffffffffffff811633146114ab576040517f08c379a000000000000000000000000000000000000000000000000000000000815260206004820152602f60248201527f416363657373436f6e74726f6c3a2063616e206f6e6c792072656e6f756e636560448201527f20726f6c657320666f722073656c66000000000000000000000000000000000060648201526084016106bd565b6114b58282612340565b5050565b6000808360018111156114ce576114ce612da7565b14156115cb5773ffffffffffffffffffffffffffffffffffffffff8416600090815260016020908152604080832083805290915290205460ff16611594576040517f08c379a000000000000000000000000000000000000000000000000000000000815260206004820152603660248201527f537065636966696564204e465420636f6e7472616374206973206e6f7420776860448201527f6974656c697374656420746f20626520626f756768740000000000000000000060648201526084016106bd565b5073ffffffffffffffffffffffffffffffffffffffff831660009081526002602090815260408083208380529091529020546116e0565b60018360018111156115df576115df612da7565b14156116dc5773ffffffffffffffffffffffffffffffffffffffff8416600090815260016020908152604080832085845290915290205460ff166116a5576040517f08c379a000000000000000000000000000000000000000000000000000000000815260206004820152603660248201527f537065636966696564204e465420636f6e7472616374206973206e6f7420776860448201527f6974656c697374656420746f20626520626f756768740000000000000000000060648201526084016106bd565b5073ffffffffffffffffffffffffffffffffffffffff831660009081526002602090815260408083208484529091529020546116e0565b5060005b9392505050565b6114037f71f3d55856e4058ed06ee057d79ada615f65cdf5f9ee88181b914225088f834f826113af565b600083600181111561172557611725612da7565b141561199b5773ffffffffffffffffffffffffffffffffffffffff8416600090815260016020908152604080832083805290915290205460ff166117eb576040517f08c379a000000000000000000000000000000000000000000000000000000000815260206004820152603660248201527f537065636966696564204e465420636f6e7472616374206973206e6f7420776860448201527f6974656c697374656420746f20626520626f756768740000000000000000000060648201526084016106bd565b73ffffffffffffffffffffffffffffffffffffffff841660009081526002602090815260408083208380529091529020543414611884576040517f08c379a000000000000000000000000000000000000000000000000000000000815260206004820152601860248201527f546f6b656e20707269636520697320646966666572656e74000000000000000060448201526064016106bd565b80600114611914576040517f08c379a000000000000000000000000000000000000000000000000000000000815260206004820152603160248201527f4f6e6c79206f6e6520746f6b656e20697320706f737369626c6520746f20627560448201527f7920706572207472616e73616374696f6e00000000000000000000000000000060648201526084016106bd565b6040517fa14481940000000000000000000000000000000000000000000000000000000081523360048201526024810183905273ffffffffffffffffffffffffffffffffffffffff85169063a144819490604401600060405180830381600087803b15801561198257600080fd5b505af1158015611996573d6000803e3d6000fd5b505050505b60018360018111156119af576119af612da7565b1415611baa5773ffffffffffffffffffffffffffffffffffffffff8416600090815260016020908152604080832085845290915290205460ff16611a75576040517f08c379a000000000000000000000000000000000000000000000000000000000815260206004820152603660248201527f537065636966696564204e465420636f6e7472616374206973206e6f7420776860448201527f6974656c697374656420746f20626520626f756768740000000000000000000060648201526084016106bd565b73ffffffffffffffffffffffffffffffffffffffff841660009081526002602090815260408083208584529091529020543414611b0e576040517f08c379a000000000000000000000000000000000000000000000000000000000815260206004820152601860248201527f546f6b656e20707269636520697320646966666572656e74000000000000000060448201526064016106bd565b6040517f731133e90000000000000000000000000000000000000000000000000000000081523360048201526024810183905260448101829052608060648201526000608482015273ffffffffffffffffffffffffffffffffffffffff85169063731133e99060a401600060405180830381600087803b158015611b9157600080fd5b505af1158015611ba5573d6000803e3d6000fd5b505050505b50505050565b6000611bbb81612246565b604080513380825230803160208401529290917fa65a8b4f7f65a1063243d7f7e9e4da00ff767599acf21549ef2548a45d1695ae910160405180910390a160405173ffffffffffffffffffffffffffffffffffffffff808316919084163180156108fc02916000818181858888f19350505050158015611baa573d6000803e3d6000fd5b3360009081527fad3228b676f7d3cd4284a5443f17f1962b36e491b30a40b2405849e597ba5fb5602052604090205460ff16611cfd576040517f08c379a000000000000000000000000000000000000000000000000000000000815260206004820152602f60248201527f4f6e6c7920636f6e74726163742061646d696e2063616e2077686974656c697360448201527f74204e465420636f6e747261637473000000000000000000000000000000000060648201526084016106bd565b73ffffffffffffffffffffffffffffffffffffffff8316600081815260016020908152604080832086845282529182902080547fffffffffffffffffffffffffffffffffffffffffffffffffffffffffffffff00168515159081179091558251938452908301859052908201523360608201527f4077c16ec406417fb9286bcb1bd80c61e781aaa596181cf82d6d61d4175940f29060800160405180910390a1505050565b3360009081527fad3228b676f7d3cd4284a5443f17f1962b36e491b30a40b2405849e597ba5fb5602052604090205460ff16611e60576040517f08c379a000000000000000000000000000000000000000000000000000000000815260206004820152602860248201527f4f6e6c7920636f6e74726163742061646d696e2063616e2073657420746f6b6560448201527f6e2070726963657300000000000000000000000000000000000000000000000060648201526084016106bd565b60005b818110156120335736838383818110611e7e57611e7e612dd6565b606002919091019150309050611e97602083018361271e565b73ffffffffffffffffffffffffffffffffffffffff16638da5cb5b6040518163ffffffff1660e01b815260040160206040518083038186803b158015611edc57600080fd5b505afa158015611ef0573d6000803e3d6000fd5b505050506040513d601f19601f82011682018060405250810190611f14919061273b565b73ffffffffffffffffffffffffffffffffffffffff1614611fb7576040517f08c379a000000000000000000000000000000000000000000000000000000000815260206004820152602e60248201527f4576656e7454726164657220646f6573206e6f74206f776e207370656369666960448201527f656420636f6c6c656374696f6e7300000000000000000000000000000000000060648201526084016106bd565b604081013560026000611fcd602085018561271e565b73ffffffffffffffffffffffffffffffffffffffff16815260208082019290925260409081016000908120858401803583529352209190915561202090612014908361271e565b82602001356001611c3f565b508061202b81612d3f565b915050611e63565b507f75da5d33fec1ea5d0abccb165b2d885e211f20947938d8b655bc5e97e0f68a7d8282604051612065929190612b48565b60405180910390a15050565b60008281526020819052604090206001015461208c81612246565b6113d48383612340565b3360009081527fad3228b676f7d3cd4284a5443f17f1962b36e491b30a40b2405849e597ba5fb5602052604090205460ff168061210157503360009081527ff179aafcc4ff8137fca1ef3b9ec4d165f87016ba123e7973fba770bc55e240e3602052604090205460ff165b61218d576040517f08c379a000000000000000000000000000000000000000000000000000000000815260206004820152603c60248201527f4f6e6c7920636f6e74726163742061646d696e206f72206d6f64657261746f7260448201527f2063616e20736574207573657220746f6b656e2076616c69646974790000000060648201526084016106bd565b600061219860045490565b905082811015612204576040517f08c379a000000000000000000000000000000000000000000000000000000000815260206004820152601a60248201527f75736564546f6b656e496420646f6573206e6f7420657869737400000000000060448201526064016106bd565b5060009182526003602052604090912060060180547fffffffffffffffffffffffffffffffffffffffffffffffffffffffffffffff0016911515919091179055565b61140381336123f7565b60008281526020818152604080832073ffffffffffffffffffffffffffffffffffffffff8516845290915290205460ff166114b55760008281526020818152604080832073ffffffffffffffffffffffffffffffffffffffff85168452909152902080547fffffffffffffffffffffffffffffffffffffffffffffffffffffffffffffff001660011790556122e23390565b73ffffffffffffffffffffffffffffffffffffffff168173ffffffffffffffffffffffffffffffffffffffff16837f2f8788117e7eff1d82e926ec794901d17c78024a50270940304540a733656f0d60405160405180910390a45050565b60008281526020818152604080832073ffffffffffffffffffffffffffffffffffffffff8516845290915290205460ff16156114b55760008281526020818152604080832073ffffffffffffffffffffffffffffffffffffffff8516808552925280832080547fffffffffffffffffffffffffffffffffffffffffffffffffffffffffffffff0016905551339285917ff6391f5c32d9c69d2a47ea670b442974b53935d1edc7fd64eb21e047a839171b9190a45050565b60008281526020818152604080832073ffffffffffffffffffffffffffffffffffffffff8516845290915290205460ff166114b55761244d8173ffffffffffffffffffffffffffffffffffffffff1660146124c7565b6124588360206124c7565b604051602001612469929190612a65565b604080517fffffffffffffffffffffffffffffffffffffffffffffffffffffffffffffffe0818403018152908290527f08c379a00000000000000000000000000000000000000000000000000000000082526106bd91600401612bb8565b606060006124d6836002612ca1565b6124e1906002612c89565b67ffffffffffffffff8111156124f9576124f9612e05565b6040519080825280601f01601f191660200182016040528015612523576020820181803683370190505b5090507f30000000000000000000000000000000000000000000000000000000000000008160008151811061255a5761255a612dd6565b60200101907effffffffffffffffffffffffffffffffffffffffffffffffffffffffffffff1916908160001a9053507f7800000000000000000000000000000000000000000000000000000000000000816001815181106125bd576125bd612dd6565b60200101907effffffffffffffffffffffffffffffffffffffffffffffffffffffffffffff1916908160001a90535060006125f9846002612ca1565b612604906001612c89565b90505b60018111156126a1577f303132333435363738396162636465660000000000000000000000000000000085600f166010811061264557612645612dd6565b1a60f81b82828151811061265b5761265b612dd6565b60200101907effffffffffffffffffffffffffffffffffffffffffffffffffffffffffffff1916908160001a90535060049490941c9361269a81612d0a565b9050612607565b5083156116e0576040517f08c379a000000000000000000000000000000000000000000000000000000000815260206004820181905260248201527f537472696e67733a20686578206c656e67746820696e73756666696369656e7460448201526064016106bd565b80356002811061271957600080fd5b919050565b60006020828403121561273057600080fd5b81356116e081612e34565b60006020828403121561274d57600080fd5b81516116e081612e34565b6000806040838503121561276b57600080fd5b823561277681612e34565b9150602083013561278681612e34565b809150509250929050565b600080600080600060a086880312156127a957600080fd5b85356127b481612e34565b945060208601356127c481612e34565b93506127d26040870161270a565b94979396509394606081013594506080013592915050565b6000806000606084860312156127ff57600080fd5b833561280a81612e34565b92506128186020850161270a565b9150604084013590509250925092565b6000806000806080858703121561283e57600080fd5b843561284981612e34565b93506128576020860161270a565b93969395505050506040820135916060013590565b6000806040838503121561287f57600080fd5b823561288a81612e34565b946020939093013593505050565b6000806000606084860312156128ad57600080fd5b83356128b881612e34565b92506020840135915060408401356128cf81612e56565b809150509250925092565b600080602083850312156128ed57600080fd5b823567ffffffffffffffff8082111561290557600080fd5b818501915085601f83011261291957600080fd5b81358181111561292857600080fd5b86602060608302850101111561293d57600080fd5b60209290920196919550909350505050565b60006020828403121561296157600080fd5b81516116e081612e56565b60006020828403121561297e57600080fd5b5035919050565b6000806040838503121561299857600080fd5b82359150602083013561278681612e34565b6000602082840312156129bc57600080fd5b81357fffffffff00000000000000000000000000000000000000000000000000000000811681146116e057600080fd5b6000602082840312156129fe57600080fd5b5051919050565b60008060408385031215612a1857600080fd5b82359150602083013561278681612e56565b60028110612a61577f4e487b7100000000000000000000000000000000000000000000000000000000600052602160045260246000fd5b9052565b7f416363657373436f6e74726f6c3a206163636f756e7420000000000000000000815260008351612a9d816017850160208801612cde565b7f206973206d697373696e6720726f6c65200000000000000000000000000000006017918401918201528351612ada816028840160208801612cde565b01602801949350505050565b73ffffffffffffffffffffffffffffffffffffffff89811682528881166020830152610100820190612b1b604084018a612a2a565b969096166060820152608081019490945260a084019290925260c0830152151560e0909101529392505050565b6020808252818101839052600090604080840186845b87811015612bab578135612b7181612e34565b73ffffffffffffffffffffffffffffffffffffffff1683528185013585840152838201358484015260609283019290910190600101612b5e565b5090979650505050505050565b6020815260008251806020840152612bd7816040850160208701612cde565b601f017fffffffffffffffffffffffffffffffffffffffffffffffffffffffffffffffe0169190910160400192915050565b60006101008201905073ffffffffffffffffffffffffffffffffffffffff8084511683528060208501511660208401526040840151612c4b6040850182612a2a565b50806060850151166060840152506080830151608083015260a083015160a083015260c083015160c083015260e0830151151560e083015292915050565b60008219821115612c9c57612c9c612d78565b500190565b6000817fffffffffffffffffffffffffffffffffffffffffffffffffffffffffffffffff0483118215151615612cd957612cd9612d78565b500290565b60005b83811015612cf9578181015183820152602001612ce1565b83811115611baa5750506000910152565b600081612d1957612d19612d78565b507fffffffffffffffffffffffffffffffffffffffffffffffffffffffffffffffff0190565b60007fffffffffffffffffffffffffffffffffffffffffffffffffffffffffffffffff821415612d7157612d71612d78565b5060010190565b7f4e487b7100000000000000000000000000000000000000000000000000000000600052601160045260246000fd5b7f4e487b7100000000000000000000000000000000000000000000000000000000600052602160045260246000fd5b7f4e487b7100000000000000000000000000000000000000000000000000000000600052603260045260246000fd5b7f4e487b7100000000000000000000000000000000000000000000000000000000600052604160045260246000fd5b73ffffffffffffffffffffffffffffffffffffffff8116811461140357600080fd5b801515811461140357600080fdfea2646970667358221220a66c4ba4e4e8482e48f2cfdc838527b414232c1abd9b22c277f97168b03bb8f864736f6c63430008060033",
  "devdoc": {
    "kind": "dev",
    "methods": {
      "getRoleAdmin(bytes32)": {
        "details": "Returns the admin role that controls `role`. See {grantRole} and {revokeRole}. To change a role's admin, use {_setRoleAdmin}."
      },
      "grantRole(bytes32,address)": {
        "details": "Grants `role` to `account`. If `account` had not been already granted `role`, emits a {RoleGranted} event. Requirements: - the caller must have ``role``'s admin role. May emit a {RoleGranted} event."
      },
      "hasRole(bytes32,address)": {
        "details": "Returns `true` if `account` has been granted `role`."
      },
      "renounceRole(bytes32,address)": {
        "details": "Revokes `role` from the calling account. Roles are often managed via {grantRole} and {revokeRole}: this function's purpose is to provide a mechanism for accounts to lose their privileges if they are compromised (such as when a trusted device is misplaced). If the calling account had been revoked `role`, emits a {RoleRevoked} event. Requirements: - the caller must be `account`. May emit a {RoleRevoked} event."
      },
      "revokeRole(bytes32,address)": {
        "details": "Revokes `role` from `account`. If `account` had been granted `role`, emits a {RoleRevoked} event. Requirements: - the caller must have ``role``'s admin role. May emit a {RoleRevoked} event."
      },
      "supportsInterface(bytes4)": {
        "details": "See {IERC165-supportsInterface}."
      }
    },
    "version": 1
  },
  "userdoc": {
    "kind": "user",
    "methods": {},
    "version": 1
  },
  "storageLayout": {
    "storage": [
      {
        "astId": 24,
        "contract": "contracts/EventTrader.sol:EventTrader",
        "label": "_roles",
        "offset": 0,
        "slot": "0",
        "type": "t_mapping(t_bytes32,t_struct(RoleData)19_storage)"
      },
      {
        "astId": 3823,
        "contract": "contracts/EventTrader.sol:EventTrader",
        "label": "collectionTokensAllowedForSale",
        "offset": 0,
        "slot": "1",
        "type": "t_mapping(t_address,t_mapping(t_uint256,t_bool))"
      },
      {
        "astId": 3829,
        "contract": "contracts/EventTrader.sol:EventTrader",
        "label": "_tokenPrices",
        "offset": 0,
        "slot": "2",
        "type": "t_mapping(t_address,t_mapping(t_uint256,t_uint256))"
      },
      {
        "astId": 3834,
        "contract": "contracts/EventTrader.sol:EventTrader",
        "label": "_usedTokens",
        "offset": 0,
        "slot": "3",
        "type": "t_mapping(t_uint256,t_struct(Token)3769_storage)"
      },
      {
        "astId": 3837,
        "contract": "contracts/EventTrader.sol:EventTrader",
        "label": "_usedTokensCounter",
        "offset": 0,
        "slot": "4",
        "type": "t_struct(Counter)3356_storage"
      },
      {
        "astId": 3839,
        "contract": "contracts/EventTrader.sol:EventTrader",
        "label": "_goodsAddr",
        "offset": 0,
        "slot": "5",
        "type": "t_address"
      }
    ],
    "types": {
      "t_address": {
        "encoding": "inplace",
        "label": "address",
        "numberOfBytes": "20"
      },
      "t_bool": {
        "encoding": "inplace",
        "label": "bool",
        "numberOfBytes": "1"
      },
      "t_bytes32": {
        "encoding": "inplace",
        "label": "bytes32",
        "numberOfBytes": "32"
      },
      "t_enum(TokenType)3751": {
        "encoding": "inplace",
        "label": "enum EventTrader.TokenType",
        "numberOfBytes": "1"
      },
      "t_mapping(t_address,t_bool)": {
        "encoding": "mapping",
        "key": "t_address",
        "label": "mapping(address => bool)",
        "numberOfBytes": "32",
        "value": "t_bool"
      },
      "t_mapping(t_address,t_mapping(t_uint256,t_bool))": {
        "encoding": "mapping",
        "key": "t_address",
        "label": "mapping(address => mapping(uint256 => bool))",
        "numberOfBytes": "32",
        "value": "t_mapping(t_uint256,t_bool)"
      },
      "t_mapping(t_address,t_mapping(t_uint256,t_uint256))": {
        "encoding": "mapping",
        "key": "t_address",
        "label": "mapping(address => mapping(uint256 => uint256))",
        "numberOfBytes": "32",
        "value": "t_mapping(t_uint256,t_uint256)"
      },
      "t_mapping(t_bytes32,t_struct(RoleData)19_storage)": {
        "encoding": "mapping",
        "key": "t_bytes32",
        "label": "mapping(bytes32 => struct AccessControl.RoleData)",
        "numberOfBytes": "32",
        "value": "t_struct(RoleData)19_storage"
      },
      "t_mapping(t_uint256,t_bool)": {
        "encoding": "mapping",
        "key": "t_uint256",
        "label": "mapping(uint256 => bool)",
        "numberOfBytes": "32",
        "value": "t_bool"
      },
      "t_mapping(t_uint256,t_struct(Token)3769_storage)": {
        "encoding": "mapping",
        "key": "t_uint256",
        "label": "mapping(uint256 => struct EventTrader.Token)",
        "numberOfBytes": "32",
        "value": "t_struct(Token)3769_storage"
      },
      "t_mapping(t_uint256,t_uint256)": {
        "encoding": "mapping",
        "key": "t_uint256",
        "label": "mapping(uint256 => uint256)",
        "numberOfBytes": "32",
        "value": "t_uint256"
      },
      "t_struct(Counter)3356_storage": {
        "encoding": "inplace",
        "label": "struct Counters.Counter",
        "members": [
          {
            "astId": 3355,
            "contract": "contracts/EventTrader.sol:EventTrader",
            "label": "_value",
            "offset": 0,
            "slot": "0",
            "type": "t_uint256"
          }
        ],
        "numberOfBytes": "32"
      },
      "t_struct(RoleData)19_storage": {
        "encoding": "inplace",
        "label": "struct AccessControl.RoleData",
        "members": [
          {
            "astId": 16,
            "contract": "contracts/EventTrader.sol:EventTrader",
            "label": "members",
            "offset": 0,
            "slot": "0",
            "type": "t_mapping(t_address,t_bool)"
          },
          {
            "astId": 18,
            "contract": "contracts/EventTrader.sol:EventTrader",
            "label": "adminRole",
            "offset": 0,
            "slot": "1",
            "type": "t_bytes32"
          }
        ],
        "numberOfBytes": "64"
      },
      "t_struct(Token)3769_storage": {
        "encoding": "inplace",
        "label": "struct EventTrader.Token",
        "members": [
          {
            "astId": 3753,
            "contract": "contracts/EventTrader.sol:EventTrader",
            "label": "owner",
            "offset": 0,
            "slot": "0",
            "type": "t_address"
          },
          {
            "astId": 3755,
            "contract": "contracts/EventTrader.sol:EventTrader",
            "label": "validateUser",
            "offset": 0,
            "slot": "1",
            "type": "t_address"
          },
          {
            "astId": 3758,
            "contract": "contracts/EventTrader.sol:EventTrader",
            "label": "tokenType",
            "offset": 20,
            "slot": "1",
            "type": "t_enum(TokenType)3751"
          },
          {
            "astId": 3760,
            "contract": "contracts/EventTrader.sol:EventTrader",
            "label": "nftContractAddress",
            "offset": 0,
            "slot": "2",
            "type": "t_address"
          },
          {
            "astId": 3762,
            "contract": "contracts/EventTrader.sol:EventTrader",
            "label": "tokenId",
            "offset": 0,
            "slot": "3",
            "type": "t_uint256"
          },
          {
            "astId": 3764,
            "contract": "contracts/EventTrader.sol:EventTrader",
            "label": "amount",
            "offset": 0,
            "slot": "4",
            "type": "t_uint256"
          },
          {
            "astId": 3766,
            "contract": "contracts/EventTrader.sol:EventTrader",
            "label": "date",
            "offset": 0,
            "slot": "5",
            "type": "t_uint256"
          },
          {
            "astId": 3768,
            "contract": "contracts/EventTrader.sol:EventTrader",
            "label": "valid",
            "offset": 0,
            "slot": "6",
            "type": "t_bool"
          }
        ],
        "numberOfBytes": "224"
      },
      "t_uint256": {
        "encoding": "inplace",
        "label": "uint256",
        "numberOfBytes": "32"
      }
    }
  }
}