{
  "address": "0x6b2Efa03ED42E768C617bE9539027f765C3816F8",
  "abi": [
    {
      "inputs": [
        {
          "internalType": "string",
          "name": "tokenUri",
          "type": "string"
        }
      ],
      "stateMutability": "nonpayable",
      "type": "constructor"
    },
    {
      "anonymous": false,
      "inputs": [
        {
          "indexed": true,
          "internalType": "address",
          "name": "account",
          "type": "address"
        },
        {
          "indexed": true,
          "internalType": "address",
          "name": "operator",
          "type": "address"
        },
        {
          "indexed": false,
          "internalType": "bool",
          "name": "approved",
          "type": "bool"
        }
      ],
      "name": "ApprovalForAll",
      "type": "event"
    },
    {
      "anonymous": false,
      "inputs": [
        {
          "indexed": true,
          "internalType": "address",
          "name": "previousOwner",
          "type": "address"
        },
        {
          "indexed": true,
          "internalType": "address",
          "name": "newOwner",
          "type": "address"
        }
      ],
      "name": "OwnershipTransferred",
      "type": "event"
    },
    {
      "anonymous": false,
      "inputs": [
        {
          "indexed": true,
          "internalType": "address",
          "name": "operator",
          "type": "address"
        },
        {
          "indexed": true,
          "internalType": "address",
          "name": "from",
          "type": "address"
        },
        {
          "indexed": true,
          "internalType": "address",
          "name": "to",
          "type": "address"
        },
        {
          "indexed": false,
          "internalType": "uint256[]",
          "name": "ids",
          "type": "uint256[]"
        },
        {
          "indexed": false,
          "internalType": "uint256[]",
          "name": "values",
          "type": "uint256[]"
        }
      ],
      "name": "TransferBatch",
      "type": "event"
    },
    {
      "anonymous": false,
      "inputs": [
        {
          "indexed": true,
          "internalType": "address",
          "name": "operator",
          "type": "address"
        },
        {
          "indexed": true,
          "internalType": "address",
          "name": "from",
          "type": "address"
        },
        {
          "indexed": true,
          "internalType": "address",
          "name": "to",
          "type": "address"
        },
        {
          "indexed": false,
          "internalType": "uint256",
          "name": "id",
          "type": "uint256"
        },
        {
          "indexed": false,
          "internalType": "uint256",
          "name": "value",
          "type": "uint256"
        }
      ],
      "name": "TransferSingle",
      "type": "event"
    },
    {
      "anonymous": false,
      "inputs": [
        {
          "indexed": false,
          "internalType": "string",
          "name": "value",
          "type": "string"
        },
        {
          "indexed": true,
          "internalType": "uint256",
          "name": "id",
          "type": "uint256"
        }
      ],
      "name": "URI",
      "type": "event"
    },
    {
      "inputs": [
        {
          "internalType": "address",
          "name": "account",
          "type": "address"
        },
        {
          "internalType": "uint256",
          "name": "id",
          "type": "uint256"
        }
      ],
      "name": "balanceOf",
      "outputs": [
        {
          "internalType": "uint256",
          "name": "",
          "type": "uint256"
        }
      ],
      "stateMutability": "view",
      "type": "function"
    },
    {
      "inputs": [
        {
          "internalType": "address[]",
          "name": "accounts",
          "type": "address[]"
        },
        {
          "internalType": "uint256[]",
          "name": "ids",
          "type": "uint256[]"
        }
      ],
      "name": "balanceOfBatch",
      "outputs": [
        {
          "internalType": "uint256[]",
          "name": "",
          "type": "uint256[]"
        }
      ],
      "stateMutability": "view",
      "type": "function"
    },
    {
      "inputs": [
        {
          "internalType": "address",
          "name": "account",
          "type": "address"
        },
        {
          "internalType": "uint256",
          "name": "id",
          "type": "uint256"
        },
        {
          "internalType": "uint256",
          "name": "value",
          "type": "uint256"
        }
      ],
      "name": "burn",
      "outputs": [],
      "stateMutability": "nonpayable",
      "type": "function"
    },
    {
      "inputs": [
        {
          "internalType": "address",
          "name": "account",
          "type": "address"
        },
        {
          "internalType": "uint256[]",
          "name": "ids",
          "type": "uint256[]"
        },
        {
          "internalType": "uint256[]",
          "name": "values",
          "type": "uint256[]"
        }
      ],
      "name": "burnBatch",
      "outputs": [],
      "stateMutability": "nonpayable",
      "type": "function"
    },
    {
      "inputs": [
        {
          "internalType": "address",
          "name": "account",
          "type": "address"
        },
        {
          "internalType": "address",
          "name": "operator",
          "type": "address"
        }
      ],
      "name": "isApprovedForAll",
      "outputs": [
        {
          "internalType": "bool",
          "name": "",
          "type": "bool"
        }
      ],
      "stateMutability": "view",
      "type": "function"
    },
    {
      "inputs": [
        {
          "internalType": "address",
          "name": "account",
          "type": "address"
        },
        {
          "internalType": "uint256",
          "name": "id",
          "type": "uint256"
        },
        {
          "internalType": "uint256",
          "name": "amount",
          "type": "uint256"
        },
        {
          "internalType": "bytes",
          "name": "data",
          "type": "bytes"
        }
      ],
      "name": "mint",
      "outputs": [],
      "stateMutability": "nonpayable",
      "type": "function"
    },
    {
      "inputs": [],
      "name": "owner",
      "outputs": [
        {
          "internalType": "address",
          "name": "",
          "type": "address"
        }
      ],
      "stateMutability": "view",
      "type": "function"
    },
    {
      "inputs": [],
      "name": "renounceOwnership",
      "outputs": [],
      "stateMutability": "nonpayable",
      "type": "function"
    },
    {
      "inputs": [
        {
          "internalType": "address",
          "name": "from",
          "type": "address"
        },
        {
          "internalType": "address",
          "name": "to",
          "type": "address"
        },
        {
          "internalType": "uint256[]",
          "name": "ids",
          "type": "uint256[]"
        },
        {
          "internalType": "uint256[]",
          "name": "amounts",
          "type": "uint256[]"
        },
        {
          "internalType": "bytes",
          "name": "data",
          "type": "bytes"
        }
      ],
      "name": "safeBatchTransferFrom",
      "outputs": [],
      "stateMutability": "nonpayable",
      "type": "function"
    },
    {
      "inputs": [
        {
          "internalType": "address",
          "name": "from",
          "type": "address"
        },
        {
          "internalType": "address",
          "name": "to",
          "type": "address"
        },
        {
          "internalType": "uint256",
          "name": "id",
          "type": "uint256"
        },
        {
          "internalType": "uint256",
          "name": "amount",
          "type": "uint256"
        },
        {
          "internalType": "bytes",
          "name": "data",
          "type": "bytes"
        }
      ],
      "name": "safeTransferFrom",
      "outputs": [],
      "stateMutability": "nonpayable",
      "type": "function"
    },
    {
      "inputs": [
        {
          "internalType": "address",
          "name": "operator",
          "type": "address"
        },
        {
          "internalType": "bool",
          "name": "approved",
          "type": "bool"
        }
      ],
      "name": "setApprovalForAll",
      "outputs": [],
      "stateMutability": "nonpayable",
      "type": "function"
    },
    {
      "inputs": [
        {
          "internalType": "string",
          "name": "newuri",
          "type": "string"
        }
      ],
      "name": "setURI",
      "outputs": [],
      "stateMutability": "nonpayable",
      "type": "function"
    },
    {
      "inputs": [
        {
          "internalType": "bytes4",
          "name": "interfaceId",
          "type": "bytes4"
        }
      ],
      "name": "supportsInterface",
      "outputs": [
        {
          "internalType": "bool",
          "name": "",
          "type": "bool"
        }
      ],
      "stateMutability": "view",
      "type": "function"
    },
    {
      "inputs": [
        {
          "internalType": "address",
          "name": "newOwner",
          "type": "address"
        }
      ],
      "name": "transferOwnership",
      "outputs": [],
      "stateMutability": "nonpayable",
      "type": "function"
    },
    {
      "inputs": [
        {
          "internalType": "uint256",
          "name": "tokenId",
          "type": "uint256"
        }
      ],
      "name": "uri",
      "outputs": [
        {
          "internalType": "string",
          "name": "",
          "type": "string"
        }
      ],
      "stateMutability": "view",
      "type": "function"
    }
  ],
  "transactionHash": "0x7ea825a5048586bf89cf7ad04d68cd5dac9e0c97b937a894ca9210a80453e6dc",
  "args": [
    "https://bafybeigcd57hrvzegi3jbchx3jxflt3slwncm27mlgwmbfrvjcklkvjmfy.ipfs.nftstorage.link/"
  ],
  "solcInputHash": "ccae457ce4103d37a6a66e11c0631854",
  "bytecode": "0x60806040523480156200001157600080fd5b5060405162002d4e38038062002d4e83398101604081905262000034916200017a565b80620000408162000069565b506200004c3362000082565b805162000061906004906020840190620000d4565b5050620002a9565b80516200007e906002906020840190620000d4565b5050565b600380546001600160a01b038381166001600160a01b0319831681179093556040519116919082907f8be0079c531659141344cd1fd0a4f28419497f9722a3daafe3b4186f6b6457e090600090a35050565b828054620000e29062000256565b90600052602060002090601f01602090048101928262000106576000855562000151565b82601f106200012157805160ff191683800117855562000151565b8280016001018555821562000151579182015b828111156200015157825182559160200191906001019062000134565b506200015f92915062000163565b5090565b5b808211156200015f576000815560010162000164565b600060208083850312156200018e57600080fd5b82516001600160401b0380821115620001a657600080fd5b818501915085601f830112620001bb57600080fd5b815181811115620001d057620001d062000293565b604051601f8201601f19908116603f01168101908382118183101715620001fb57620001fb62000293565b8160405282815288868487010111156200021457600080fd5b600093505b8284101562000238578484018601518185018701529285019262000219565b828411156200024a5760008684830101525b98975050505050505050565b600181811c908216806200026b57607f821691505b602082108114156200028d57634e487b7160e01b600052602260045260246000fd5b50919050565b634e487b7160e01b600052604160045260246000fd5b612a9580620002b96000396000f3fe608060405234801561001057600080fd5b50600436106100f45760003560e01c8063715018a611610097578063e985e9c511610066578063e985e9c514610213578063f242432a1461025c578063f2fde38b1461026f578063f5298aca1461028257600080fd5b8063715018a6146101bd578063731133e9146101c55780638da5cb5b146101d8578063a22cb4651461020057600080fd5b80630e89341c116100d35780630e89341c146101575780632eb2c2d6146101775780634e1273f41461018a5780636b20c454146101aa57600080fd5b8062fdd58e146100f957806301ffc9a71461011f57806302fe530514610142575b600080fd5b61010c610107366004612256565b610295565b6040519081526020015b60405180910390f35b61013261012d3660046123e5565b610372565b6040519015158152602001610116565b61015561015036600461241f565b610457565b005b61016a610165366004612468565b610476565b604051610116919061271f565b610155610185366004612097565b6104d4565b61019d610198366004612314565b61059d565b60405161011691906126e7565b6101556101b83660046121a6565b6106f5565b6101556107ba565b6101556101d33660046122b3565b6107ce565b60035460405173ffffffffffffffffffffffffffffffffffffffff9091168152602001610116565b61015561020e36600461221a565b6107e8565b610132610221366004612064565b73ffffffffffffffffffffffffffffffffffffffff918216600090815260016020908152604080832093909416825291909152205460ff1690565b61015561026a366004612141565b6107f3565b61015561027d366004612049565b6108b5565b610155610290366004612280565b61096c565b600073ffffffffffffffffffffffffffffffffffffffff831661033f576040517f08c379a000000000000000000000000000000000000000000000000000000000815260206004820152602a60248201527f455243313135353a2061646472657373207a65726f206973206e6f742061207660448201527f616c6964206f776e65720000000000000000000000000000000000000000000060648201526084015b60405180910390fd5b5060009081526020818152604080832073ffffffffffffffffffffffffffffffffffffffff949094168352929052205490565b60007fffffffff0000000000000000000000000000000000000000000000000000000082167fd9b67a2600000000000000000000000000000000000000000000000000000000148061040557507fffffffff0000000000000000000000000000000000000000000000000000000082167f0e89341c00000000000000000000000000000000000000000000000000000000145b8061045157507f01ffc9a7000000000000000000000000000000000000000000000000000000007fffffffff000000000000000000000000000000000000000000000000000000008316145b92915050565b61045f610a2c565b8051610472906004906020840190611e6d565b5050565b6060600060048054610487906127c5565b9050116104a35760405180602001604052806000815250610451565b60046104ae83610aad565b6040516020016104bf929190612522565b60405160208183030381529060405292915050565b73ffffffffffffffffffffffffffffffffffffffff85163314806104fd57506104fd8533610221565b610589576040517f08c379a000000000000000000000000000000000000000000000000000000000815260206004820152602f60248201527f455243313135353a2063616c6c6572206973206e6f7420746f6b656e206f776e60448201527f6572206e6f7220617070726f76656400000000000000000000000000000000006064820152608401610336565b6105968585858585610be7565b5050505050565b60608151835114610630576040517f08c379a000000000000000000000000000000000000000000000000000000000815260206004820152602960248201527f455243313135353a206163636f756e747320616e6420696473206c656e67746860448201527f206d69736d6174636800000000000000000000000000000000000000000000006064820152608401610336565b6000835167ffffffffffffffff81111561064c5761064c61293e565b604051908082528060200260200182016040528015610675578160200160208202803683370190505b50905060005b84518110156106ed576106c08582815181106106995761069961290f565b60200260200101518583815181106106b3576106b361290f565b6020026020010151610295565b8282815181106106d2576106d261290f565b60209081029190910101526106e681612864565b905061067b565b509392505050565b73ffffffffffffffffffffffffffffffffffffffff831633148061071e575061071e8333610221565b6107aa576040517f08c379a000000000000000000000000000000000000000000000000000000000815260206004820152602f60248201527f455243313135353a2063616c6c6572206973206e6f7420746f6b656e206f776e60448201527f6572206e6f7220617070726f76656400000000000000000000000000000000006064820152608401610336565b6107b5838383610f21565b505050565b6107c2610a2c565b6107cc6000611248565b565b6107d6610a2c565b6107e2848484846112bf565b50505050565b610472338383611430565b73ffffffffffffffffffffffffffffffffffffffff851633148061081c575061081c8533610221565b6108a8576040517f08c379a000000000000000000000000000000000000000000000000000000000815260206004820152602f60248201527f455243313135353a2063616c6c6572206973206e6f7420746f6b656e206f776e60448201527f6572206e6f7220617070726f76656400000000000000000000000000000000006064820152608401610336565b6105968585858585611584565b6108bd610a2c565b73ffffffffffffffffffffffffffffffffffffffff8116610960576040517f08c379a000000000000000000000000000000000000000000000000000000000815260206004820152602660248201527f4f776e61626c653a206e6577206f776e657220697320746865207a65726f206160448201527f64647265737300000000000000000000000000000000000000000000000000006064820152608401610336565b61096981611248565b50565b73ffffffffffffffffffffffffffffffffffffffff831633148061099557506109958333610221565b610a21576040517f08c379a000000000000000000000000000000000000000000000000000000000815260206004820152602f60248201527f455243313135353a2063616c6c6572206973206e6f7420746f6b656e206f776e60448201527f6572206e6f7220617070726f76656400000000000000000000000000000000006064820152608401610336565b6107b58383836117c2565b60035473ffffffffffffffffffffffffffffffffffffffff1633146107cc576040517f08c379a000000000000000000000000000000000000000000000000000000000815260206004820181905260248201527f4f776e61626c653a2063616c6c6572206973206e6f7420746865206f776e65726044820152606401610336565b606081610aed57505060408051808201909152600181527f3000000000000000000000000000000000000000000000000000000000000000602082015290565b8160005b8115610b175780610b0181612864565b9150610b109050600a8361276e565b9150610af1565b60008167ffffffffffffffff811115610b3257610b3261293e565b6040519080825280601f01601f191660200182016040528015610b5c576020820181803683370190505b5090505b8415610bdf57610b71600183612782565b9150610b7e600a8661289d565b610b89906030612756565b60f81b818381518110610b9e57610b9e61290f565b60200101907effffffffffffffffffffffffffffffffffffffffffffffffffffffffffffff1916908160001a905350610bd8600a8661276e565b9450610b60565b949350505050565b8151835114610c78576040517f08c379a000000000000000000000000000000000000000000000000000000000815260206004820152602860248201527f455243313135353a2069647320616e6420616d6f756e7473206c656e6774682060448201527f6d69736d617463680000000000000000000000000000000000000000000000006064820152608401610336565b73ffffffffffffffffffffffffffffffffffffffff8416610d1b576040517f08c379a000000000000000000000000000000000000000000000000000000000815260206004820152602560248201527f455243313135353a207472616e7366657220746f20746865207a65726f20616460448201527f64726573730000000000000000000000000000000000000000000000000000006064820152608401610336565b3360005b8451811015610e8c576000858281518110610d3c57610d3c61290f565b602002602001015190506000858381518110610d5a57610d5a61290f565b6020908102919091018101516000848152808352604080822073ffffffffffffffffffffffffffffffffffffffff8e168352909352919091205490915081811015610e27576040517f08c379a000000000000000000000000000000000000000000000000000000000815260206004820152602a60248201527f455243313135353a20696e73756666696369656e742062616c616e636520666f60448201527f72207472616e73666572000000000000000000000000000000000000000000006064820152608401610336565b60008381526020818152604080832073ffffffffffffffffffffffffffffffffffffffff8e8116855292528083208585039055908b16825281208054849290610e71908490612756565b9250508190555050505080610e8590612864565b9050610d1f565b508473ffffffffffffffffffffffffffffffffffffffff168673ffffffffffffffffffffffffffffffffffffffff168273ffffffffffffffffffffffffffffffffffffffff167f4a39dc06d4c0dbc64b70af90fd698a233a518aa5d07e595d983b8c0526c8f7fb8787604051610f039291906126fa565b60405180910390a4610f198187878787876119cc565b505050505050565b73ffffffffffffffffffffffffffffffffffffffff8316610fc4576040517f08c379a000000000000000000000000000000000000000000000000000000000815260206004820152602360248201527f455243313135353a206275726e2066726f6d20746865207a65726f206164647260448201527f65737300000000000000000000000000000000000000000000000000000000006064820152608401610336565b8051825114611055576040517f08c379a000000000000000000000000000000000000000000000000000000000815260206004820152602860248201527f455243313135353a2069647320616e6420616d6f756e7473206c656e6774682060448201527f6d69736d617463680000000000000000000000000000000000000000000000006064820152608401610336565b604080516020810190915260009081905233905b83518110156111b45760008482815181106110865761108661290f565b6020026020010151905060008483815181106110a4576110a461290f565b6020908102919091018101516000848152808352604080822073ffffffffffffffffffffffffffffffffffffffff8c168352909352919091205490915081811015611170576040517f08c379a0000000000000000000000000000000000000000000000000000000008152602060048201526024808201527f455243313135353a206275726e20616d6f756e7420657863656564732062616c60448201527f616e6365000000000000000000000000000000000000000000000000000000006064820152608401610336565b60009283526020838152604080852073ffffffffffffffffffffffffffffffffffffffff8b16865290915290922091039055806111ac81612864565b915050611069565b50600073ffffffffffffffffffffffffffffffffffffffff168473ffffffffffffffffffffffffffffffffffffffff168273ffffffffffffffffffffffffffffffffffffffff167f4a39dc06d4c0dbc64b70af90fd698a233a518aa5d07e595d983b8c0526c8f7fb868660405161122c9291906126fa565b60405180910390a46040805160208101909152600090526107e2565b6003805473ffffffffffffffffffffffffffffffffffffffff8381167fffffffffffffffffffffffff0000000000000000000000000000000000000000831681179093556040519116919082907f8be0079c531659141344cd1fd0a4f28419497f9722a3daafe3b4186f6b6457e090600090a35050565b73ffffffffffffffffffffffffffffffffffffffff8416611362576040517f08c379a000000000000000000000000000000000000000000000000000000000815260206004820152602160248201527f455243313135353a206d696e7420746f20746865207a65726f2061646472657360448201527f73000000000000000000000000000000000000000000000000000000000000006064820152608401610336565b33600061136e85611c66565b9050600061137b85611c66565b905060008681526020818152604080832073ffffffffffffffffffffffffffffffffffffffff8b168452909152812080548792906113ba908490612756565b9091555050604080518781526020810187905273ffffffffffffffffffffffffffffffffffffffff808a1692600092918716917fc3d58168c5ae7397731d063d5bbf3d657854427343f4c083240f7aacaa2d0f62910160405180910390a461142783600089898989611cb1565b50505050505050565b8173ffffffffffffffffffffffffffffffffffffffff168373ffffffffffffffffffffffffffffffffffffffff1614156114ec576040517f08c379a000000000000000000000000000000000000000000000000000000000815260206004820152602960248201527f455243313135353a2073657474696e6720617070726f76616c2073746174757360448201527f20666f722073656c6600000000000000000000000000000000000000000000006064820152608401610336565b73ffffffffffffffffffffffffffffffffffffffff83811660008181526001602090815260408083209487168084529482529182902080547fffffffffffffffffffffffffffffffffffffffffffffffffffffffffffffff001686151590811790915591519182527f17307eab39ab6107e8899845ad3d59bd9653f200f220920489ca2b5937696c31910160405180910390a3505050565b73ffffffffffffffffffffffffffffffffffffffff8416611627576040517f08c379a000000000000000000000000000000000000000000000000000000000815260206004820152602560248201527f455243313135353a207472616e7366657220746f20746865207a65726f20616460448201527f64726573730000000000000000000000000000000000000000000000000000006064820152608401610336565b33600061163385611c66565b9050600061164085611c66565b905060008681526020818152604080832073ffffffffffffffffffffffffffffffffffffffff8c16845290915290205485811015611700576040517f08c379a000000000000000000000000000000000000000000000000000000000815260206004820152602a60248201527f455243313135353a20696e73756666696369656e742062616c616e636520666f60448201527f72207472616e73666572000000000000000000000000000000000000000000006064820152608401610336565b60008781526020818152604080832073ffffffffffffffffffffffffffffffffffffffff8d8116855292528083208985039055908a1682528120805488929061174a908490612756565b9091555050604080518881526020810188905273ffffffffffffffffffffffffffffffffffffffff808b16928c821692918816917fc3d58168c5ae7397731d063d5bbf3d657854427343f4c083240f7aacaa2d0f62910160405180910390a46117b7848a8a8a8a8a611cb1565b505050505050505050565b73ffffffffffffffffffffffffffffffffffffffff8316611865576040517f08c379a000000000000000000000000000000000000000000000000000000000815260206004820152602360248201527f455243313135353a206275726e2066726f6d20746865207a65726f206164647260448201527f65737300000000000000000000000000000000000000000000000000000000006064820152608401610336565b33600061187184611c66565b9050600061187e84611c66565b604080516020808201835260009182905288825281815282822073ffffffffffffffffffffffffffffffffffffffff8b1683529052205490915084811015611947576040517f08c379a0000000000000000000000000000000000000000000000000000000008152602060048201526024808201527f455243313135353a206275726e20616d6f756e7420657863656564732062616c60448201527f616e6365000000000000000000000000000000000000000000000000000000006064820152608401610336565b60008681526020818152604080832073ffffffffffffffffffffffffffffffffffffffff8b81168086529184528285208a8703905582518b81529384018a90529092908816917fc3d58168c5ae7397731d063d5bbf3d657854427343f4c083240f7aacaa2d0f62910160405180910390a4604080516020810190915260009052611427565b73ffffffffffffffffffffffffffffffffffffffff84163b15610f19576040517fbc197c8100000000000000000000000000000000000000000000000000000000815273ffffffffffffffffffffffffffffffffffffffff85169063bc197c8190611a43908990899088908890889060040161262c565b602060405180830381600087803b158015611a5d57600080fd5b505af1925050508015611aab575060408051601f3d9081017fffffffffffffffffffffffffffffffffffffffffffffffffffffffffffffffe0168201909252611aa891810190612402565b60015b611b9557611ab761296d565b806308c379a01415611b0b5750611acc612989565b80611ad75750611b0d565b806040517f08c379a0000000000000000000000000000000000000000000000000000000008152600401610336919061271f565b505b6040517f08c379a000000000000000000000000000000000000000000000000000000000815260206004820152603460248201527f455243313135353a207472616e7366657220746f206e6f6e204552433131353560448201527f526563656976657220696d706c656d656e7465720000000000000000000000006064820152608401610336565b7fffffffff0000000000000000000000000000000000000000000000000000000081167fbc197c810000000000000000000000000000000000000000000000000000000014611427576040517f08c379a000000000000000000000000000000000000000000000000000000000815260206004820152602860248201527f455243313135353a204552433131353552656365697665722072656a6563746560448201527f6420746f6b656e730000000000000000000000000000000000000000000000006064820152608401610336565b60408051600180825281830190925260609160009190602080830190803683370190505090508281600081518110611ca057611ca061290f565b602090810291909101015292915050565b73ffffffffffffffffffffffffffffffffffffffff84163b15610f19576040517ff23a6e6100000000000000000000000000000000000000000000000000000000815273ffffffffffffffffffffffffffffffffffffffff85169063f23a6e6190611d289089908990889088908890600401612697565b602060405180830381600087803b158015611d4257600080fd5b505af1925050508015611d90575060408051601f3d9081017fffffffffffffffffffffffffffffffffffffffffffffffffffffffffffffffe0168201909252611d8d91810190612402565b60015b611d9c57611ab761296d565b7fffffffff0000000000000000000000000000000000000000000000000000000081167ff23a6e610000000000000000000000000000000000000000000000000000000014611427576040517f08c379a000000000000000000000000000000000000000000000000000000000815260206004820152602860248201527f455243313135353a204552433131353552656365697665722072656a6563746560448201527f6420746f6b656e730000000000000000000000000000000000000000000000006064820152608401610336565b828054611e79906127c5565b90600052602060002090601f016020900481019282611e9b5760008555611ee1565b82601f10611eb457805160ff1916838001178555611ee1565b82800160010185558215611ee1579182015b82811115611ee1578251825591602001919060010190611ec6565b50611eed929150611ef1565b5090565b5b80821115611eed5760008155600101611ef2565b600067ffffffffffffffff831115611f2057611f2061293e565b604051611f5560207fffffffffffffffffffffffffffffffffffffffffffffffffffffffffffffffe0601f8701160182612819565b809150838152848484011115611f6a57600080fd5b83836020830137600060208583010152509392505050565b803573ffffffffffffffffffffffffffffffffffffffff81168114611fa657600080fd5b919050565b600082601f830112611fbc57600080fd5b81356020611fc982612732565b604051611fd68282612819565b8381528281019150858301600585901b87018401881015611ff657600080fd5b60005b8581101561201557813584529284019290840190600101611ff9565b5090979650505050505050565b600082601f83011261203357600080fd5b61204283833560208501611f06565b9392505050565b60006020828403121561205b57600080fd5b61204282611f82565b6000806040838503121561207757600080fd5b61208083611f82565b915061208e60208401611f82565b90509250929050565b600080600080600060a086880312156120af57600080fd5b6120b886611f82565b94506120c660208701611f82565b9350604086013567ffffffffffffffff808211156120e357600080fd5b6120ef89838a01611fab565b9450606088013591508082111561210557600080fd5b61211189838a01611fab565b9350608088013591508082111561212757600080fd5b5061213488828901612022565b9150509295509295909350565b600080600080600060a0868803121561215957600080fd5b61216286611f82565b945061217060208701611f82565b93506040860135925060608601359150608086013567ffffffffffffffff81111561219a57600080fd5b61213488828901612022565b6000806000606084860312156121bb57600080fd5b6121c484611f82565b9250602084013567ffffffffffffffff808211156121e157600080fd5b6121ed87838801611fab565b9350604086013591508082111561220357600080fd5b5061221086828701611fab565b9150509250925092565b6000806040838503121561222d57600080fd5b61223683611f82565b91506020830135801515811461224b57600080fd5b809150509250929050565b6000806040838503121561226957600080fd5b61227283611f82565b946020939093013593505050565b60008060006060848603121561229557600080fd5b61229e84611f82565b95602085013595506040909401359392505050565b600080600080608085870312156122c957600080fd5b6122d285611f82565b93506020850135925060408501359150606085013567ffffffffffffffff8111156122fc57600080fd5b61230887828801612022565b91505092959194509250565b6000806040838503121561232757600080fd5b823567ffffffffffffffff8082111561233f57600080fd5b818501915085601f83011261235357600080fd5b8135602061236082612732565b60405161236d8282612819565b8381528281019150858301600585901b870184018b101561238d57600080fd5b600096505b848710156123b7576123a381611f82565b835260019690960195918301918301612392565b50965050860135925050808211156123ce57600080fd5b506123db85828601611fab565b9150509250929050565b6000602082840312156123f757600080fd5b813561204281612a31565b60006020828403121561241457600080fd5b815161204281612a31565b60006020828403121561243157600080fd5b813567ffffffffffffffff81111561244857600080fd5b8201601f8101841361245957600080fd5b610bdf84823560208401611f06565b60006020828403121561247a57600080fd5b5035919050565b600081518084526020808501945080840160005b838110156124b157815187529582019590820190600101612495565b509495945050505050565b600081518084526124d4816020860160208601612799565b601f017fffffffffffffffffffffffffffffffffffffffffffffffffffffffffffffffe0169290920160200192915050565b60008151612518818560208601612799565b9290920192915050565b600080845481600182811c91508083168061253e57607f831692505b6020808410821415612577577f4e487b710000000000000000000000000000000000000000000000000000000086526022600452602486fd5b81801561258b57600181146125ba576125e7565b7fffffffffffffffffffffffffffffffffffffffffffffffffffffffffffffff008616895284890196506125e7565b60008b81526020902060005b868110156125df5781548b8201529085019083016125c6565b505084890196505b5050505050506126236125fa8286612506565b7f2e6a736f6e000000000000000000000000000000000000000000000000000000815260050190565b95945050505050565b600073ffffffffffffffffffffffffffffffffffffffff808816835280871660208401525060a0604083015261266560a0830186612481565b82810360608401526126778186612481565b9050828103608084015261268b81856124bc565b98975050505050505050565b600073ffffffffffffffffffffffffffffffffffffffff808816835280871660208401525084604083015283606083015260a060808301526126dc60a08301846124bc565b979650505050505050565b6020815260006120426020830184612481565b60408152600061270d6040830185612481565b82810360208401526126238185612481565b60208152600061204260208301846124bc565b600067ffffffffffffffff82111561274c5761274c61293e565b5060051b60200190565b60008219821115612769576127696128b1565b500190565b60008261277d5761277d6128e0565b500490565b600082821015612794576127946128b1565b500390565b60005b838110156127b457818101518382015260200161279c565b838111156107e25750506000910152565b600181811c908216806127d957607f821691505b60208210811415612813577f4e487b7100000000000000000000000000000000000000000000000000000000600052602260045260246000fd5b50919050565b7fffffffffffffffffffffffffffffffffffffffffffffffffffffffffffffffe0601f830116810181811067ffffffffffffffff8211171561285d5761285d61293e565b6040525050565b60007fffffffffffffffffffffffffffffffffffffffffffffffffffffffffffffffff821415612896576128966128b1565b5060010190565b6000826128ac576128ac6128e0565b500690565b7f4e487b7100000000000000000000000000000000000000000000000000000000600052601160045260246000fd5b7f4e487b7100000000000000000000000000000000000000000000000000000000600052601260045260246000fd5b7f4e487b7100000000000000000000000000000000000000000000000000000000600052603260045260246000fd5b7f4e487b7100000000000000000000000000000000000000000000000000000000600052604160045260246000fd5b600060033d11156129865760046000803e5060005160e01c5b90565b600060443d10156129975790565b6040517ffffffffffffffffffffffffffffffffffffffffffffffffffffffffffffffffc803d016004833e81513d67ffffffffffffffff81602484011181841117156129e557505050505090565b82850191508151818111156129fd5750505050505090565b843d8701016020828501011115612a175750505050505090565b612a2660208286010187612819565b509095945050505050565b7fffffffff000000000000000000000000000000000000000000000000000000008116811461096957600080fdfea2646970667358221220767a328ff12339e91d9ffb98c0cd31a8f97db9bd67cbc9f6fec24e44e24489c764736f6c63430008060033",
  "devdoc": {
    "kind": "dev",
    "methods": {
      "balanceOf(address,uint256)": {
        "details": "See {IERC1155-balanceOf}. Requirements: - `account` cannot be the zero address."
      },
      "balanceOfBatch(address[],uint256[])": {
        "details": "See {IERC1155-balanceOfBatch}. Requirements: - `accounts` and `ids` must have the same length."
      },
      "isApprovedForAll(address,address)": {
        "details": "See {IERC1155-isApprovedForAll}."
      },
      "owner()": {
        "details": "Returns the address of the current owner."
      },
      "renounceOwnership()": {
        "details": "Leaves the contract without owner. It will not be possible to call `onlyOwner` functions anymore. Can only be called by the current owner. NOTE: Renouncing ownership will leave the contract without an owner, thereby removing any functionality that is only available to the owner."
      },
      "safeBatchTransferFrom(address,address,uint256[],uint256[],bytes)": {
        "details": "See {IERC1155-safeBatchTransferFrom}."
      },
      "safeTransferFrom(address,address,uint256,uint256,bytes)": {
        "details": "See {IERC1155-safeTransferFrom}."
      },
      "setApprovalForAll(address,bool)": {
        "details": "See {IERC1155-setApprovalForAll}."
      },
      "supportsInterface(bytes4)": {
        "details": "See {IERC165-supportsInterface}."
      },
      "transferOwnership(address)": {
        "details": "Transfers ownership of the contract to a new account (`newOwner`). Can only be called by the current owner."
      }
    },
    "version": 1
  },
  "userdoc": {
    "kind": "user",
    "methods": {},
    "version": 1
  },
  "storageLayout": {
    "storage": [
      {
        "astId": 531,
        "contract": "contracts/GoodsToken.sol:GoodsToken",
        "label": "_balances",
        "offset": 0,
        "slot": "0",
        "type": "t_mapping(t_uint256,t_mapping(t_address,t_uint256))"
      },
      {
        "astId": 537,
        "contract": "contracts/GoodsToken.sol:GoodsToken",
        "label": "_operatorApprovals",
        "offset": 0,
        "slot": "1",
        "type": "t_mapping(t_address,t_mapping(t_address,t_bool))"
      },
      {
        "astId": 539,
        "contract": "contracts/GoodsToken.sol:GoodsToken",
        "label": "_uri",
        "offset": 0,
        "slot": "2",
        "type": "t_string_storage"
      },
      {
        "astId": 400,
        "contract": "contracts/GoodsToken.sol:GoodsToken",
        "label": "_owner",
        "offset": 0,
        "slot": "3",
        "type": "t_address"
      },
      {
        "astId": 4464,
        "contract": "contracts/GoodsToken.sol:GoodsToken",
        "label": "_uri",
        "offset": 0,
        "slot": "4",
        "type": "t_string_storage"
      }
    ],
    "types": {
      "t_address": {
        "encoding": "inplace",
        "label": "address",
        "numberOfBytes": "20"
      },
      "t_bool": {
        "encoding": "inplace",
        "label": "bool",
        "numberOfBytes": "1"
      },
      "t_mapping(t_address,t_bool)": {
        "encoding": "mapping",
        "key": "t_address",
        "label": "mapping(address => bool)",
        "numberOfBytes": "32",
        "value": "t_bool"
      },
      "t_mapping(t_address,t_mapping(t_address,t_bool))": {
        "encoding": "mapping",
        "key": "t_address",
        "label": "mapping(address => mapping(address => bool))",
        "numberOfBytes": "32",
        "value": "t_mapping(t_address,t_bool)"
      },
      "t_mapping(t_address,t_uint256)": {
        "encoding": "mapping",
        "key": "t_address",
        "label": "mapping(address => uint256)",
        "numberOfBytes": "32",
        "value": "t_uint256"
      },
      "t_mapping(t_uint256,t_mapping(t_address,t_uint256))": {
        "encoding": "mapping",
        "key": "t_uint256",
        "label": "mapping(uint256 => mapping(address => uint256))",
        "numberOfBytes": "32",
        "value": "t_mapping(t_address,t_uint256)"
      },
      "t_string_storage": {
        "encoding": "bytes",
        "label": "string",
        "numberOfBytes": "32"
      },
      "t_uint256": {
        "encoding": "inplace",
        "label": "uint256",
        "numberOfBytes": "32"
      }
    }
  }
}